:020000040800F2
:1000000058040020C1010008D70E0008570E000850
:10001000D50E0008CD020008E11100080000000024
:10002000000000000000000000000000DB0E0008DF
:10003000CF02000800000000D90E0008DD0E000805
:10004000DB010008DB010008DB010008DB01000820
:10005000DB010008DB010008DB010008DB01000810
:10006000DB010008DB010008DB010008DB01000800
:10007000DB010008DB010008DB010008DB010008F0
:10008000DB010008DB010008DB010008DB010008E0
:10009000DB010008DB010008DB010008DB010008D0
:1000A000DB010008DB010008DB010008DB010008C0
:1000B000DB010008DB010008DB010008DB010008B0
:1000C000DB010008DB010008DB010008DB010008A0
:1000D000DB010008D5110008DB010008DB01000886
:1000E000DB010008DB010008DB010008DB01000880
:1000F000DB010008DB010008DB010008DB01000870
:10010000DB010008DB010008DB010008DB0100085F
:10011000DB010008DB010008DB010008DB0100084F
:10012000DB010008DB010008DB010008DB0100083F
:10013000DB010008DB010008DB010008DB0100082F
:10014000DB010008DB010008DB010008DB0100081F
:10015000DB010008DB010008DB010008DB0100080F
:10016000DB010008DB010008DB010008DB010008FF
:10017000DB010008DB010008DB01000800000000D3
:10018000DB010008DB010008DB010008DB010008DF
:10019000DB010008DB010008DB010008DB010008CF
:1001A000DB010008DB010008DB010008DFF80CD0F0
:1001B00000F07AF800480047211200085804002097
:1001C0000648804706480047FEE7FEE7FEE7FEE7F1
:1001D000FEE7FEE7FEE7FEE7FEE7FEE7690F000841
:1001E000AD0100082DE9F05F0546002092469B46D0
:1001F00088460646814640241BE02846414647463D
:10020000224600F041F853465A46C01A914110D395
:1002100011461846224600F028F82D1A67EB01080F
:100220004F4622460120002100F01FF817EB00097D
:100230004E41201EA4F10104DFDC484631462A4627
:100240004346BDE8F09FD2B201E000F8012B491E01
:10025000FBD270470022F6E710B513460A46044663
:100260001946FFF7F0FF204610BD202A04DB203A94
:1002700000FA02F1002070479140C2F1200320FAF9
:1002800003F3194390407047202A04DB203A21FAF7
:1002900002F00021704721FA02F3D040C2F120029F
:1002A0009140084319467047064C074D06E0E06848
:1002B00040F0010394E8070098471034AC42F6D3AD
:1002C000FFF778FF80130008A0130008FEE77047CF
:1002D00090F83510022903D0802141650120704734
:1002E000052180F835100068016821F001010160E6
:1002F0000020704770B5044600F002F90546601C06
:1003000002D004480078044400F0FAF8401BA042F0
:10031000FAD370BD080000202DE9F84F00224FF0FD
:10032000010803254FF00F0E0B6808FA02F4234072
:10033000A3426ED14E68012E05D0022E03D0112E9D
:1003400001D0122E12D186684FEA420C05FA0CF742
:10035000BE43CF6807FA0CF7374387604668A64369
:100360000C79C4F30014944034434460C6685700C9
:1003700005FA07FC8C6826EA0C06BC403443C460CE
:100380004C68022C01D0122C13D1D40800EB840449
:10039000A346D4F8209054074FEAD46A0EFA0AF61E
:1003A00029EA06090E6906FA0AF646EA0906CBF8B2
:1003B000206004680E7924EA0C0406F00306BE40AF
:1003C000264306604C68E4006FD53B4C266846F433
:1003D00080462660246822F0030604F480440094DA
:1003E000364C3444A446D4F808489607360F0EFA23
:1003F00006F7BC43324FB84201D100272EE0314FFF
:10040000B84201D1012729E02F4FB84202D102277B
:1004100024E04AE02D4FB84201D103271EE02C4FC3
:10042000B84201D1042719E02A4FB84201D105276B
:1004300014E0294FB84201D106270FE0274FB842F8
:1004400001D107270AE0264FB84201D1082705E06D
:10045000244FB84201D1092700E00A27B7402743BB
:10046000CCF80878204E34684F689C43FF0300D5D1
:100470001C4334601C4E361D34684F689C43BF03D8
:1004800000D51C433460184E083634684F689C43CE
:10049000FF0200D51C433460134E0C3634684F689D
:1004A0009C43BF0200D51C433460521C102AFFF449
:1004B0003BAFBDE8F88F00004438024000300140F7
:1004C000000002400004024000080240000C02400C
:1004D000001002400014024000180240001C0240BC
:1004E0000020024000240240003C01400069084016
:1004F00000D0012070470AB1816170470904FBE711
:1005000001488068704700000800002002488168A8
:100510000278114481607047080000200B4810B534
:10052000016841F400710160016841F4806101607B
:10053000016841F480710160032000F06FF8002031
:1005400000F006F800F024F8002010BD003C024046
:1005500070B50D4D04464FF47A712878B1FBF0F078
:100560000A490968B1FBF0F000F03AFB48B9102CD9
:1005700007D200222146501E00F030F800206C60A7
:1005800070BD012070BD0000080000201400002094
:100590000A4808B5016841F480410160006800F430
:1005A000804000900548001F016841F080510160C3
:1005B000006800F08050009008BD00004438024000
:1005C000002809DB00F01F02012191404009800052
:1005D00000F1E020C0F8001170470000F0B40E4BAD
:1005E0001B680C46C3F30223C3F10705042D00D991
:1005F0000425191D072901D2002300E0DB1E012676
:1006000006FA05F1491E214099409E40761E16408B
:100610003143F0BC00F0E5BD0CED00E0064900F010
:10062000070208684FF6FF03184040EA0220034A19
:1006300010430860704700000CED00E00000FA0570
:100640002DE9F8431748016841F0805101600068C6
:10065000154F00F08050012600903E64FFF750FFD8
:1006600005464FF47A78114C05E000BFFFF748FFCC
:10067000401B40450DD86068C003F7D57E64FFF786
:100680003FFF0546464607E0FFF73AFF401BB042F2
:1006900002D90320BDE8F88360688003F4D5002008
:1006A000F8E700004038024000000E4200700040B1
:1006B0002DE9F0470E46050065D0DFF81481D8F823
:1006C0000000F7B200F00F00B04207D288F80070C7
:1006D000D8F8000000F00F00B04254D128683D4C1B
:1006E000810712D5400703D5206840F4E050206010
:1006F0002878000703D5206840F460402060206817
:10070000A96820F0F000084320602878C0072DD0A9
:10071000304968680839012812D0022813D003280C
:1007200011D00968890700292DDA216821F0030119
:1007300001432160FFF7E4FE814641F2883A0EE072
:1007400009688903EFE709688901ECE7FFF7D8FE3C
:10075000A0EB0901514502D90320BDE8F0872068CC
:10076000696800F00C00B0EB810FEFD1D8F80010F1
:10077000404601F00F01B14207D90770006800F050
:100780000F00B04201D00120E7E72878400705D5E7
:100790002068E96820F4E0500843206028780007CA
:1007A00006D52068296920F4604040EAC100206035
:1007B00000F038F82168084AC1F30311515CC840C1
:1007C0000649086006480068FFF7C2FE0020C4E73B
:1007D000003C024008380240681300081400002062
:1007E0000C0000200448054900680968044AC1F368
:1007F0008221515CC8407047140000200838024034
:10080000781300080448054900680968044AC1F3E0
:100810004231515CC8407047140000200838024043
:1008200078130008154810B5006810F00C02144841
:1008300013D04110042A0FD0082A0ED10F4C241FC8
:100840002268236802F03F025B0207D52068C0F3EC
:100850008810A0FB010106E0084610BD2168C1F325
:100860008811A1FB00010023FFF7BCFC2168C1F344
:100870000141491C4900B0FBF1F010BD08380240AD
:100880000024F4002DE9F84F040076D02078DFF83A
:1008900038A3CE4DC00749D0DAF800105046C1F356
:1008A0008101012908D00068C0F3810002280AD123
:1008B000281D0068400206D52868800336D5606888
:1008C0000028E2D032E06068B0F5803F10D0B0F58B
:1008D000A02F286810D020F480302860286820F4E9
:1008E000802028606068A0B1FFF70AFE06460CE091
:1008F000286840F48030F4E740F480202860F7E76F
:10090000FFF7FEFD801B642873D828688003F7D5A5
:100910000CE0FFF7F5FD064605E000BFFFF7F0FD30
:10092000801B6428F0D828688003F7D42078DFF88B
:10093000A08280074FF000093ED5DAF8001050463B
:1009400011F00C0F09D00068C0F3810002280BD110
:100950009D48001F0068400206D42868800715D50E
:10096000E068012809D111E0E068B8B10120C8F8B9
:100970000000FFF7C5FD064605E020E1FFF7C0FDDA
:10098000801B0228C0D828688007F7D5286821690D
:1009900020F0F80040EAC10028600DE0C8F800909F
:1009A000FFF7AEFD064604E0FFF7AAFD801B022814
:1009B0001FD828688007F7D42078000722D5824EF8
:1009C000844861696C3671B101210160FFF798FDBF
:1009D000074604E0FFF794FDC01B022809D83068E1
:1009E0008007F7D50EE0C0F80090FFF789FD0746B5
:1009F00005E082E0FFF784FDC01B02287DD8306847
:100A00008007F7D42078400768D5DFF8BCB100270D
:100A10000BF1380BDBF80000C0000BD4DBF8001042
:100A200041F08051CBF80010DBF80000012700F006
:100A300080500090684E3068C00510D4306840F493
:100A400080703060FFF75CFD009005E0FFF758FD17
:100A50000099401A022850D83068C005F6D55A4E81
:100A6000A068683601280FD00528306810D020F023
:100A700001003060306820F004003060A068B8B138
:100A8000FFF73EFD00900FE0306840F00100F4E712
:100A900040F004003060F7E7FFF732FD0099411A9B
:100AA00041F28830814266D830688007F4D50EE084
:100AB000FFF726FD009007E0FFF722FD0099411A9D
:100AC00041F28830814256D830688007F4D42FB183
:100AD000DBF8001021F08051CBF80010A069D0B3F2
:100AE000DAF800205146C2F38102022A4AD00228D5
:100AF000484607D0C8F8600000E03CE0FFF700FD82
:100B000004463BE04746C8F86000FFF7F9FC06469C
:100B100005E000BFFFF7F4FC801B02282BD82868F3
:100B20008001F7D4D4E907010843A16A2B4A490898
:100B300002EB0141626A41EA8211084394F82C10E9
:100B400040EA01612048001F016001203866FFF77C
:100B5000D7FC044605E034E0FFF7D2FC001B022876
:100B600009D828688001F7D52BE000BFFFF7C8FC43
:100B7000001B022802D90320BDE8F88F28688001F5
:100B8000F4D41EE00128F7D00868E26900F480017F
:100B9000914214D1226A00F03F0191420FD147F6F1
:100BA000C071626A0140914209D1A26A00F44031E9
:100BB000914204D1E16A00F07060884201D00120C6
:100BC000DAE70020D8E70000083802400038024089
:100BD00000004742800E4742007000400000FFFFC7
:100BE00010B5401EB0F1807F01D3012010BD4FF041
:100BF000E02460610F21601700F0F3FA0020A0618B
:100C000007202061002010BD7047000070B5026809
:100C100004461068D168536910F00F0F52D003F0EA
:100C2000010501F490762E435FD0C20705D0CA05B6
:100C300003D5E26B42F00102E263420705D5DA0711
:100C400003D0E26B42F00202E263820705D5DA07C5
:100C500003D0E26B42F00402E263020707D501F021
:100C600020022A4303D0E26B42F00802E263E26B07
:100C7000002A33D0800604D5880602D5204600F02D
:100C800097F920684069E16BC0F38010090700D430
:100C900028B3204600F07EF92068416949061AD53C
:100CA000416921F040014161606BA0B11B490165C0
:100CB000606BFFF70DFB002810D0606B016DBDE885
:100CC00070400847830610D58B060ED52046BDE838
:100CD000704000F06DB92046FFF796FF70BD2046CA
:100CE000FFF792FF0020E06370BD030606D50B06F8
:100CF00004D52046BDE8704000F03ABA4006F3D56E
:100D00004806F1D5D168204621F04001D16020216C
:100D100084F8391000F09EF870BD0000850F0008BF
:100D200070B5040004D094F83900002510B106E035
:100D3000012070BD84F83850204600F023F82420AC
:100D400084F839002068C16821F40051C160204650
:100D500000F07AF92068016921F49041016120686E
:100D6000416921F02A0141612068C16841F40051C4
:100D7000C160E563202084F8390084F83A0000203F
:100D800070BD000010B586B0044614216846FFF718
:100D900061FA18492068884229D11748016841F052
:100DA00010010160006800F010000590124814382E
:100DB000016841F0010101600068694600F001002E
:100DC00005904FF4C0600090022001900120029035
:100DD00003200390072004900848FFF79DFA0022A3
:100DE00011462520FFF7FAFB2520FFF7E9FB06B0A7
:100DF00010BD0000001001404438024000000240D5
:100E000090F83A30202B22D1F9B1F2B190F8383075
:100E1000012B1CD081628285C2850021C163222200
:100E200080F83A2080F838100168CA6842F480726D
:100E3000CA6001684A6942F001024A610068C168FB
:100E400041F02001C160002070470120704702205E
:100E5000704770477047FEE770B586B0142168464A
:100E6000FFF7F8F919480024016841F020010160FA
:100E7000016801F020010591016841F080010160E5
:100E8000016801F080010591016841F001010160F4
:100E900000680F4E00F00100059000223821304616
:100EA000FFF729FB382000900125CDE90154694660
:100EB00030460394FFF730FA4FF4C0708DE83100EC
:100EC00069463046FFF728FA06B070BD3038024058
:100ED00000140240FEE7704770477047FFF716BBEB
:100EE00030B593B030216846FFF7B4F914210CA84F
:100EF000FFF7B0F91A480025016841F08051016000
:100F0000006800F0805011901648016841F440419B
:100F100001600068022400F4404011900120039019
:100F200010200490009406940820CDE90750B420C6
:100F3000CDE9090404200B906846FFF7A3FCFFF7F6
:100F40007FFB0CA90F2081E831004FF4A0500F90D7
:100F5000E002109005210CA8FFF7AAFB13B030BDEA
:100F600040380240007000400548016841F47001BB
:100F7000016003494FF0006080390860704700004D
:100F800088ED00E010B5806B0021C185C184FFF7BA
:100F90003BFE10BD0168CA6822F49072CA60016805
:100FA0004A6922F001024A61202180F83A10704714
:100FB00010B590F83A10222901D0022010BD8168A6
:100FC000B1F5805F11D00169002901681FD049681F
:100FD00001F07F03816A4A1C82620B70C18D491E39
:100FE0000904090CC18518D02BE00269816A002A26
:100FF0000268526805D0D2B20A80816A491C8162B7
:10100000ECE7C2F308020A80816A891CF7E74A68A4
:10101000816A4B1C83620A70E0E70168CA6822F0AB
:101020002002CA600168CA6822F48072CA6001683E
:101030004A6922F001024A61202180F83A10FFF744
:1010400008FF002010BD00002DE9F04104460068B3
:101050000169E26821F44051114301612169A068EE
:10106000E26908436169114308432168CA6849F28B
:101070000C639A430243CA6020684169A26921F463
:10108000407111434161E069192764253226B0F5AA
:10109000004F354A354920684FF0000806D0884295
:1010A00001D0904236D1FFF7ADFB35E0884201D048
:1010B000904202D1FFF7A6FB01E0FFF793FB6168C6
:1010C0004A18A0FB070148EB0803FFF78BF801461D
:1010D000B0FBF5F00201B1FBF5F06FF018035843D7
:1010E00001EB800006EBC000B0FBF5F000F0F8006B
:1010F00002EB4002B1FBF5F0584301EB800006EB38
:10110000C000B0FBF5F000F00700216810448860D3
:10111000BDE8F081FFF766FB61688B0F8A00A0FBDA
:101120000701FFF75FF80146B0FBF5F06FF018021A
:10113000504301EB800006EB0010B0FBF5F000F02F
:10114000F002B1FBF5F002EB0012B1FBF5F06FF02D
:101150001803584301EB800006EB0010B0FBF5F0DC
:1011600000F00F00D1E70000001401400010014022
:1011700090F83910212901D0022070478168B1F51B
:10118000805F016A0BD04A1C0262026809785160D4
:10119000C18C491E0904090CC1840ED017E00988CE
:1011A0000268C1F30801516001690029016A02D097
:1011B000491C0162ECE7891CFBE70168CA6822F060
:1011C0008002CA600068C16841F04001C16000202F
:1011D000704700000148FFF719BD0000180000200B
:1011E000FEE70907090E002804DB00F1E02080F883
:1011F0000014704700F00F0000F1E02080F8141D8B
:10120000704702E008C8121F08C1002AFAD17047CF
:101210007047002001E001C1121F002AFBD1704776
:10122000FFF77CF9FFF75CFEFFF716FE3A4C3948F2
:101230000C2120604FF4165060600020A060E06038
:10124000C4E90401A061E0612046FFF769FD334D68
:10125000012208212846FFF74EF903223049204693
:10126000FFF7CEFD2E4E4FF48078B61EE08D00BB0A
:1012700003222B492848FFF7C3FD294801788278CB
:10128000303901EBC10303EB0111407802EB81011E
:1012900000EB80004FF6F05202EB40000844308033
:1012A000002703E0012000F03DF87F1C30888742D2
:1012B000F8DB474641462846FFF718F9012805D0D4
:1012C00080212846FFF712F9012821D080212846E5
:1012D000FFF70CF90128C9D039462846FFF706F96F
:1012E0000128C3D1002210212846FFF704F901226A
:1012F00020212846FFF7FFF80120FEF7FBFF002220
:1013000020212846FFF7F7F80120FEF7F3FFADE7AD
:101310000122E8E7001001401800002000140240FC
:101320000200002010B50F4C012818D0002818D159
:10133000002210212046FFF7DEF80122202120465E
:10134000FFF7D9F80120FEF7D5FF00222021204623
:10135000FFF7D1F8BDE810400120FEF7CBBF012216
:10136000E7E710BD0014024000000000000000008C
:10137000010203040607080900000000010203043B
:10138000A01300080000002018000000021200084E
:10139000B8130008180000204004000012120008D2
:1013A000000000000000000001000000100000002C
:0813B000000000000024F4001D
:04000005080001AD41
:00000001FF
