:020000040800F2
:1000000010040020C1010008CF0B00085D0B0008A0
:10001000CD0B0008CD0200087D0C00080000000098
:10002000000000000000000000000000D30B0008EA
:10003000CF02000800000000D10B0008D50B00081B
:10004000DB010008DB010008DB010008DB01000820
:10005000DB010008DB010008DB010008DB01000810
:10006000DB010008DB010008DB010008DB01000800
:10007000DB010008DB010008DB010008DB010008F0
:10008000DB010008DB010008DB010008DB010008E0
:10009000DB010008DB010008DB010008DB010008D0
:1000A000DB010008DB010008DB010008DB010008C0
:1000B000DB010008DB010008DB010008DB010008B0
:1000C000DB010008DB010008DB010008DB010008A0
:1000D000DB010008DB010008DB010008DB01000890
:1000E000DB010008DB010008DB010008DB01000880
:1000F000DB010008DB010008DB010008DB01000870
:10010000DB010008DB010008DB010008DB0100085F
:10011000DB010008DB010008DB010008DB0100084F
:10012000DB010008DB010008DB010008DB0100083F
:10013000DB010008DB010008DB010008DB0100082F
:10014000DB010008DB010008DB010008DB0100081F
:10015000DB010008DB010008DB010008DB0100080F
:10016000DB010008DB010008DB010008DB010008FF
:10017000DB010008DB010008DB01000800000000D3
:10018000DB010008DB010008DB010008DB010008DF
:10019000DB010008DB010008DB010008DB010008CF
:1001A000DB010008DB010008DB010008DFF80CD0F0
:1001B00000F07AF800480047BD0C00081004002049
:1001C0000648804706480047FEE7FEE7FEE7FEE7F1
:1001D000FEE7FEE7FEE7FEE7FEE7FEE7610C00084C
:1001E000AD0100082DE9F05F0546002092469B46D0
:1001F00088460646814640241BE02846414647463D
:10020000224600F041F853465A46C01A914110D395
:1002100011461846224600F028F82D1A67EB01080F
:100220004F4622460120002100F01FF817EB00097D
:100230004E41201EA4F10104DFDC484631462A4627
:100240004346BDE8F09FD2B201E000F8012B491E01
:10025000FBD270470022F6E710B513460A46044663
:100260001946FFF7F0FF204610BD202A04DB203A94
:1002700000FA02F1002070479140C2F1200320FAF9
:1002800003F3194390407047202A04DB203A21FAF7
:1002900002F00021704721FA02F3D040C2F120029F
:1002A0009140084319467047064C074D06E0E06848
:1002B00040F0010394E8070098471034AC42F6D3AD
:1002C000FFF778FFE80C0008080D0008FEE770470C
:1002D0002DE9F84F00224FF0010803254FF00F0ED3
:1002E0000B6808FA02F42340A3426ED14E68012E37
:1002F00005D0022E03D0112E01D0122E12D1866805
:100300004FEA420C05FA0CF7BE43CF6807FA0CF728
:10031000374387604668A6430C79C4F300149440C1
:1003200034434460C668570005FA07FC8C6826EA27
:100330000C06BC403443C4604C68022C01D0122C23
:1003400013D1D40800EB8404A346D4F820905407BA
:100350004FEAD46A0EFA0AF629EA06090E6906FA85
:100360000AF646EA0906CBF8206004680E7924EA0A
:100370000C0406F00306BE40264306604C68E40009
:100380006FD53B4C266846F480462660246822F0F0
:10039000030604F480440094364C3444A446D4F854
:1003A00008489607360F0EFA06F7BC43324FB8429C
:1003B00001D100272EE0314FB84201D1012729E0B9
:1003C0002F4FB84202D1022724E04AE02D4FB84215
:1003D00001D103271EE02C4FB84201D1042719E0B8
:1003E0002A4FB84201D1052714E0294FB84201D164
:1003F00006270FE0274FB84201D107270AE0264F12
:10040000B84201D1082705E0244FB84201D109279D
:1004100000E00A27B7402743CCF80878204E34681C
:100420004F689C43FF0300D51C4334601C4E361DAF
:1004300034684F689C43BF0300D51C433460184E9A
:10044000083634684F689C43FF0200D51C43346073
:10045000134E0C3634684F689C43BF0200D51C43D2
:100460003460521C102AFFF43BAFBDE8F88F000047
:1004700044380240003001400000024000040240C5
:1004800000080240000C024000100240001402402C
:1004900000180240001C02400020024000240240DC
:1004A000003C01400AB1816170470904FBE700008C
:1004B0000148806870470000000000200248816801
:1004C0000278114481607047000000200B4810B58D
:1004D000016841F400710160016841F480610160CC
:1004E000016841F480710160032000F061F8002090
:1004F00000F006F800F024F8002010BD003C024097
:1005000070B50D4D04464FF47A712878B1FBF0F0C8
:100510000A490968B1FBF0F000F00CFB48B9102C57
:1005200007D200222146501E00F022F800206C6005
:1005300070BD012070BD0000000000200C000020F4
:100540000A4808B5016841F480410160006800F480
:10055000804000900548001F016841F08051016013
:10056000006800F08050009008BD00004438024050
:10057000F0B40E4B1B680C46C3F30223C3F107050E
:10058000042D00D90425191D072901D2002300E0FC
:10059000DB1E012606FA05F1491E214099409E40C6
:1005A000761E16403143F0BC00F069BB0CED00E054
:1005B000064900F0070208684FF6FF03184040EABA
:1005C0000220034A10430860704700000CED00E071
:1005D0000000FA052DE9F8431748016841F0805101
:1005E00001600068154F00F08050012600903E64C5
:1005F000FFF75EFF05464FF47A78114C05E000BF27
:10060000FFF756FF401B40450DD86068C003F7D583
:100610007E64FFF74DFF0546464607E0FFF748FFBB
:10062000401BB04202D90320BDE8F8836068800314
:10063000F4D50020F8E700004038024000000E42E8
:10064000007000402DE9F0470E46050065D0DFF848
:100650001481D8F80000F7B200F00F00B04207D2C2
:1006600088F80070D8F8000000F00F00B04254D1B4
:1006700028683D4C810712D5400703D5206840F417
:10068000E05020602878000703D5206840F46040DF
:1006900020602068A96820F0F000084320602878D6
:1006A000C0072DD0304968680839012812D00228C7
:1006B00013D0032811D00968890700292DDA216891
:1006C00021F0030101432160FFF7F2FE814641F270
:1006D000883A0EE009688903EFE709688901ECE7C9
:1006E000FFF7E6FEA0EB0901514502D90320BDE862
:1006F000F0872068696800F00C00B0EB810FEFD143
:10070000D8F80010404601F00F01B14207D9077038
:10071000006800F00F00B04201D00120E7E7287820
:10072000400705D52068E96820F4E05008432060C0
:100730002878000706D52068296920F4604040EA3F
:10074000C100206000F018F82168084AC1F30311C5
:10075000515CC8400649086006480068FFF7D0FEB3
:100760000020C4E7003C024008380240D80C0008D2
:100770000C00002004000020154810B5006810F09F
:100780000C02144813D04110042A0FD0082A0ED1AD
:100790000F4C241F2268236802F03F025B0207D53A
:1007A0002068C0F38810A0FB010106E0084610BDD8
:1007B0002168C1F38811A1FB00010023FFF712FD9E
:1007C0002168C1F30141491C4900B0FBF1F010BDA3
:1007D000083802400024F4002DE9F84F040076D0D8
:1007E0002078DFF838A3CE4DC00749D0DAF80010E2
:1007F0005046C1F38101012908D00068C0F381008F
:1008000002280AD1281D0068400206D52868800306
:1008100036D560680028E2D032E06068B0F5803FED
:1008200010D0B0F5A02F286810D020F480302860B8
:10083000286820F4802028606068A0B1FFF738FEA7
:1008400006460CE0286840F48030F4E740F480204D
:100850002860F7E7FFF72CFE801B642873D8286810
:100860008003F7D50CE0FFF723FE064605E000BF46
:10087000FFF71EFE801B6428F0D828688003F7D499
:100880002078DFF8A08280074FF000093ED5DAF823
:100890000010504611F00C0F09D00068C0F3810021
:1008A00002280BD19D48001F0068400206D428682A
:1008B000800715D5E068012809D111E0E068B8B1DA
:1008C0000120C8F80000FFF7F3FD064605E020E12F
:1008D000FFF7EEFD801B0228C0D828688007F7D5F7
:1008E0002868216920F0F80040EAC10028600DE086
:1008F000C8F80090FFF7DCFD064604E0FFF7D8FDDE
:10090000801B02281FD828688007F7D420780007AA
:1009100022D5824E844861696C3671B10121016033
:10092000FFF7C6FD074604E0FFF7C2FDC01B022823
:1009300009D830688007F7D50EE0C0F80090FFF7BF
:10094000B7FD074605E082E0FFF7B2FDC01B0228B5
:100950007DD830688007F7D42078400768D5DFF865
:10096000BCB100270BF1380BDBF80000C0000BD442
:10097000DBF8001041F08051CBF80010DBF80000EC
:10098000012700F080500090684E3068C00510D4F8
:10099000306840F480703060FFF78AFD009005E019
:1009A000FFF786FD0099401A022850D83068C0052C
:1009B000F6D55A4EA068683601280FD00528306851
:1009C00010D020F001003060306820F0040030606A
:1009D000A068B8B1FFF76CFD00900FE0306840F000
:1009E0000100F4E740F004003060F7E7FFF760FD36
:1009F0000099411A41F28830814266D830688007F8
:100A0000F4D50EE0FFF754FD009007E0FFF750FD2E
:100A10000099411A41F28830814256D830688007E7
:100A2000F4D42FB1DBF8001021F08051CBF8001086
:100A3000A069D0B3DAF800205146C2F38102022A3D
:100A40004AD00228484607D0C8F8600000E03CE0E1
:100A5000FFF72EFD04463BE04746C8F86000FFF76D
:100A600027FD064605E000BFFFF722FD801B022898
:100A70002BD828688001F7D4D4E907010843A16A7C
:100A80002B4A490802EB0141626A41EA821108439C
:100A900094F82C1040EA01612048001F01600120F9
:100AA0003866FFF705FD044605E034E0FFF700FD7A
:100AB000001B022809D828688001F7D52BE000BF69
:100AC000FFF7F6FC001B022802D90320BDE8F88FCF
:100AD00028688001F4D41EE00128F7D00868E26994
:100AE00000F48001914214D1226A00F03F0191424A
:100AF0000FD147F6C071626A0140914209D1A26AE2
:100B000000F44031914204D1E16A00F07060884203
:100B100001D00120DAE70020D8E7000008380240C1
:100B20000038024000004742800E474200700040FB
:100B30000000FFFF10B5401EB0F1807F01D30120FF
:100B400010BD4FF0E02460610F21601700F097F8AE
:100B50000020A06107202061002010BDFEE70000FA
:100B600070B586B014216846FFF774FB1548002461
:100B7000016841F020010160016801F02001059148
:100B8000016841F08001016000680F4E00F08000B4
:100B90000590224638213046FFF784FC382000902B
:100BA0000125CDE90154694630460394FFF790FBD7
:100BB0004FF4C0708DE8310069463046FFF788FB7E
:100BC00006B070BD3038024000140240FEE77047A6
:100BD00070477047FFF772BC30B593B0302168465C
:100BE000FFF738FB14210CA8FFF734FB1A48002547
:100BF000016841F080510160006800F08050119060
:100C00001648016841F4404101600068022400F484
:100C1000404011900120039010200490009406940D
:100C20000820CDE90750B420CDE9090404200B9039
:100C30006846FFF7D1FDFFF7CDFC0CA90F2081E836
:100C400031004FF4A0500F90E002109005210CA845
:100C5000FFF7F8FC13B030BD403802400070004090
:100C60000548016841F47001016003494FF00060DC
:100C7000803908607047000088ED00E0FEE7090752
:100C8000090E002804DB00F1E02080F80014704712
:100C900000F00F0000F1E02080F8141D704702E022
:100CA00008C8121F08C1002AFAD1704770470020F7
:100CB00001E001C1121F002AFBD17047FFF706FCBB
:100CC000FFF78AFFFFF74CFF012208210148FFF7D9
:100CD000E9FBFEE7001402400000000000000000F5
:100CE0000102030406070809080D0008000000209F
:100CF000100000009E0C0008180D000810000020D5
:100D000000040000AE0C000801000000100000000C
:080D1000000000000024F400C3
:04000005080001AD41
:00000001FF
